:020000040800F2
:10000000782D002045010008531C00084114000809
:10001000DB1B00082D0C0008A947000800000000A9
:10002000000000000000000000000000494200083D
:100030006110000800000000BF0A000835430008F6
:100040005F0100085F0100085F0100085F01000810
:100050005F0100085F010008651000085F010008EB
:100060005F0100085F0100085F0100085F010008F0
:100070005F0100085F0100085F0100085F010008E0
:100080005F0100085F0100085F0100085F010008D0
:100090005F0100085F0100085F0100085F010008C0
:1000A0005F0100085F0100085F0100085F010008B0
:1000B0005F0100085F0100085F0100085F010008A0
:1000C0005F0100085F0100085F0100085F01000890
:1000D0005F0100085F010008AD4400085F010008EF
:1000E0005F0100085F0100085F0100085F01000870
:1000F0005F0100085F0100085F0100085F01000860
:100100005F0100085F0100085F0100085F0100084F
:100110005F0100085F0100085F0100085F0100083F
:100120005F0100085F0100085F0100085F0100082F
:10013000DFF80CD000F064FC0048004719600008AC
:10014000782D00200648804706480047FEE7FEE776
:10015000FEE7FEE7FEE7FEE7FEE7FEE7FEE7FEE777
:10016000B54300083101000872B6704762B67047A7
:10017000EFF3108072B6704780F31088704730BF7D
:10018000704720BF7047B0FA80F0704790FAA0F037
:10019000B0FA80F0704790FAA0F070472DE9F04176
:1001A0000024061B254671F1000605DA012400270C
:1001B000D0EB070067EB0101161E73F1000605DAAC
:1001C0000027D2EB0702012567EB030300F01AFBBF
:1001D00086460E4617469C46AC4204D00025D0EB1E
:1001E000050E65EB010624B10020D2EB000760EBA1
:1001F000030C704631463A466346BDE8F081D2B200
:1002000001E000F8012B491EFBD270470022F6E7FF
:1002100010B513460A4604461946FFF7F0FF20467C
:1002200010BD30B504460020034600E05B1C93423D
:1002300003D2E05CCD5C401BF8D030BDF0B480EA66
:100240000102D40F4200B2EB410F02D2024608462F
:1002500011464A0042D0C30DDDB2C1F3C752AD1AF8
:10026000202D35DAC1F3160141F4000204B15242E7
:10027000C5F1200602FA06F12A411044B3EBD05F23
:1002800023D0C4B1012DA0EBC35009DCF0BC4FF06A
:10029000004202EAC352DBB200F5000000F00DBBE1
:1002A000400000F1807000EBC350A0F1807040EA84
:1002B000D170490009E0490841EAC071A0EBC35080
:1002C00000F50000400800EBC350F0BC00F0ECBAB1
:1002D0006142012202EB4101001BF6E7F0BC7047CE
:1002E00081F00041AAE780F00040A7E780EA010220
:1002F00010B502F00043400022D04A001FD0010E8A
:1003000001EB1261C0F35600C2F3560240F4000044
:1003100042F40002A0FB022000047F39140400D044
:10032000401C50EA124001D44000491EC2B20C06E3
:1003300004EBD010401C4008802A02D003E00020CB
:1003400010BD20F00100002900DA0020184310BD84
:1003500030B480EA010202F0004530F0004221F0A2
:10036000004013D090B1C30DD40DC2F31601C0F3F9
:100370001600E41A41F4000140F400027D34914279
:1003800001D3641C00E04900002C02DA30BC0020DC
:1003900070474FF400000023914201D3891A0343B0
:1003A00040084FEA4101F7D151B1914202D14FF0DB
:1003B000004105E002D24FF0010101E06FF00101C0
:1003C00003EBC450284430BC00F06EBA2DE9FE4F58
:1003D000804681EA0300C00F0C46009021F00041E6
:1003E00023F00045B8EB0200A94105D24046214662
:1003F00090461C460B46024623F00040104347D06F
:10040000270DC7F30A00C3F30A510290401A019066
:1004100040286BDAC3F3130040F4801B0098924627
:1004200020B10023D2EB030A63EB0B0B0198594672
:10043000C0F14002504600F016FA06460D465046FE
:100440005946019A00F01EFA10EB080061410024A1
:1004500087EA115284EAE7731A4340D0009A62B3E4
:10046000019A012A4FEA075215DC001B61EB0201D9
:100470004FF0004202EA0752CDE90042001C41F56C
:10048000801132462B4600F055FA03B0BDE8F08FDC
:1004900040462146F9E7001B61EB0201001C41F5D3
:1004A000801300185B412018A2F5001747EB0301E9
:1004B00040EAD570B6196D4111E06D084FEA360675
:1004C00045EAC0754FEA0752001B61EB0201001CB0
:1004D00041F5801149084FEA300000195141324678
:1004E0002B4603B0BDE8F04F00F015BA009801228A
:1004F00040000023D0EB020263EBE073009821463A
:100500004FEAE074B8EB000061EB0401E9E783F027
:1005100000435BE781F0004158E72DE9FE4F81EA97
:10052000030404F0004421F0004100944FF0000B5C
:1005300023F0004350EA01045ED052EA03045BD08A
:10054000C3F30A54C1F30A552C44A4F2F3340194C2
:10055000A0FB0254C1F3130141F48011C3F3130350
:1005600043F4801301FB024400FB034E840A970A04
:1005700044EA815447EA8357A4FB076802958D0A31
:1005800005FB07854FEA932C04FB0C542705029DBD
:100590004FEA065847EA1637B5EB08056EEB070C2D
:1005A000870E920E47EA811742EA8312A7FB0201E7
:1005B000B6EB0B0164EB00042B0D43EA0C335E1821
:1005C00044EB1C50DA465146E7FB0201C5F3130425
:1005D0004FEA0B3343EA14534FEA0432019C43EAD7
:1005E0000603A4F10C040294009CCDE900B400F0D1
:1005F000A1F903B0BDE8F08F00200146F9E72DE92D
:10060000F04D81EA030404F0004B21F0004514464C
:100610004FF0000A23F0004150EA050220D054EACE
:1006200001021DD0C5F30A570246C5F31303C1F3F7
:100630001300C1F30A5640F4801543F48013A7EB6E
:100640000608101BD64608F2FD3873EB050002D3EE
:1006500008F1010801E092185B41B8F1000F03DADC
:1006600000200146BDE8F08D00204FF480110646C1
:1006700084460EE0171B73EB050705D3121B63EBD3
:10068000050306434CEA010C49084FEA3000921872
:100690005B4150EA0107EDD152EA030012D082EA31
:1006A000040083EA0501084305D0101BAB4106D2C4
:1006B0000122002306E000224FF0004302E06FF029
:1006C000010253101AEB06004CEB085110EB0A0024
:1006D00041EB0B01BDE8F04D00F01DB9C10F80EA00
:1006E000E0700844CA079623002100F0E6B896237C
:1006F0000022114600F0E1B800F0004220F0004076
:10070000C10DC0F3160040F400007F2901DA00207B
:100710007047962903DCC1F19601C84001E0963983
:100720008840002AF4D04042704720F00040C10DBC
:10073000C0F3160040F400007F2901DA0020704762
:10074000962903DCC1F19601C8407047963988406C
:10075000704700F0004230F000400AD0C10D01F5B2
:100760006071C0F3160042EA0151C208400711430C
:10077000704700200146704701F0004330B421F07B
:10078000004150EA010206D00A0DA2F56072C1F3E1
:100790001301002A02DC30BC00207047440F44EAF9
:1007A000C104C100E01830BC00EBC25000F07CB8BE
:1007B000002801DBC0F10040002901DBC1F100414C
:1007C00081427047002801DBC0F10040002901DBB5
:1007D000C1F100418842704730B50B460146002008
:1007E0002022012409E021FA02F59D4205D303FAF3
:1007F00002F5491B04FA02F52844151EA2F1010274
:10080000F1DC30BD2DE9F05F0546002092469B46A5
:1008100088460646814640241BE028464146474616
:10082000224600F0FFF853465A46C01A914110D3B1
:1008300011461846224600F016F82D1A67EB0108FB
:100840004F4622460120002100F00DF817EB000969
:100850004E41201EA4F10104DFDC484631462A4601
:100860004346BDE8F09F202A04DB203A00FA02F15B
:10087000002070479140C2F1200320FA03F319438E
:1008800090407047202A06DBCB17203A41FA02F04D
:1008900043EAE07306E041FA02F3D040C2F12002DD
:1008A00091400843194670470029A8BF7047401C73
:1008B000490008BF20F00100704710B4B0FA80FC76
:1008C00000FA0CF050EA010404BF10BC704749B1B3
:1008D000CCF1200421FA04F411FA0CF118BF012123
:1008E00021430843A3EB0C01CB1D4FEA00614FEA03
:1008F000102042BF002010BC704700EBC3501044D2
:100900000029A4BF10BC7047401C490008BF20F05C
:10091000010010BC704710B5141E73F1000408DA12
:10092000401C41F1000192185B411A4301D120F0B3
:10093000010010BD2DE9F04D92469B4611B1B1FA70
:1009400081F202E0B0FA80F220329046FFF78BFF8E
:1009500004460F4640EA0A0041EA0B0153465A4654
:10096000084313D0114653EA010019D0C8F14002E0
:10097000504600F057F805460E4650465946424646
:10098000FFF771FF084305D0012004E020463946F7
:10099000BDE8F08D0020054346EAE0762C4337435E
:1009A0000A986305E40AA0EB08000022FD0A44EA65
:1009B00047540A3002D500200146E9E70105101925
:1009C0006941DDE9084500196941BDE8F04DA2E73C
:1009D00070B521F0004303430CD0C1F30A55002445
:1009E000D5EB040564EB0403D617AD1AB34102DB63
:1009F0000020014670BD201841EB025170BD00007F
:100A0000064C074D06E0E06840F0010394E807005B
:100A100098471034AC42F6D3FFF78EFBE07F000816
:100A200000800008202A04DB203A21FA02F000218D
:100A3000704721FA02F3D040C2F1200291400843EE
:100A40001946704770B58C1810F8015B15F0070354
:100A500001D110F8013B2A1106D110F8012B03E057
:100A600010F8016B01F8016B5B1EF9D12B0705D45F
:100A70000023521E0DD401F8013BFAE710F8013BA8
:100A8000CB1A921C03E013F8015B01F8015B521EC4
:100A9000F9D5A142D8D3002070BD000018484FF00E
:100AA000FF010170002080F309881648016881F376
:100AB000088815484FF08051016062B6FEE772B6B3
:100AC000EFF3098028B1203880E8F00F0F4909685A
:100AD000086000B50E4880475DF804EB0D480E49EC
:100AE0000A78027009480D490A680260106890E8A7
:100AF000F00F203080F309884EF0040E62B6704784
:100B000022ED00E00C01002004ED00E004010020D3
:100B1000C9290008C9000020CA00002008010020DF
:100B200008B507E06B4600221146104601F098FD1B
:100B300000F0CAFBF6E7000010B58AB0044600F0EA
:100B400061F800F075F809A801F0F4FA00F0DEF899
:100B500009A8032100220592CDE90621089010463C
:100B600040210622144BCDE90132CDE903100820C3
:100B70000023124A12A10090134801F045FB09A876
:100B8000032100220592CDE906210890104680211C
:100B90000C220E4BCDE90132CDE9031002200023D7
:100BA0000B4A0CA100900C4801F02EFB09A90B4840
:100BB00001F0CEFB0AB010BDD8070020E10B000801
:100BC00055736172000000001C030020D80500204E
:100BD000210B0008444D500060020020A4010020B9
:100BE0000EB50EE002A8002301AA1946009018468F
:100BF00001F044FC0446BDF80400C1B2204603F0F5
:100C0000A7FCEFE710B503F005FC03F017FC03F0B9
:100C1000C1FC00F039FE00F063FC00F091FF00F031
:100C200053F900F037FA01F015F810BD00BFFEE7E8
:100C300010B500F0FBF800F003F800F0F3F810BD79
:100C400070B5002600201849088018490880184906
:100C50000860184908601849086018490860184970
:100C60000860002400BFFFF783FA064600BF002596
:100C70000BE000201049086000F074F800F08CF8D8
:100C80000D4800680444681C85B2002DF1D00C4862
:100C900004600020084908600849086000BF304629
:100CA000FFF76AFA00BF70BD9C0000209E00002084
:100CB000A0000020A4000020AC000020B000002014
:100CC000A800002001460846044A1268904203D951
:100CD000024A1268801A00E000207047A800002035
:100CE00070B5002500BFFFF743FA054600BF064870
:100CF000046800BF2846FFF73FFA00BF2046FFF711
:100D0000E1FF0646304670BDAC00002070B50025FE
:100D1000FFF7E6FF044600BFFFF72AFA054600BFCB
:100D200000200449086000BF2846FFF725FA00BFED
:100D3000204670BDAC00002070B5002500BFFFF755
:100D400017FA054600BF0648046800BF2846FFF7AB
:100D500013FA00BF2046FFF7B5FF0646304670BDC8
:100D6000B000002010B509480088401C07490880E1
:100D70000748008818B900F083F80649086004485D
:100D80000088401C0249088010BD00009C00002023
:100D90009E000020A000002010B50F480088401ED3
:100DA0000D49088008460088A0B900F069F80B4991
:100DB0000860084600680A490968441A094800683A
:100DC000A04201D20748046007480068A04201D24F
:100DD0000548046010BD00009E000020A400002013
:100DE000A0000020AC000020B000002010B50024BE
:100DF00000BF00BFFFF7BCF9044600BFFFF7B2FF1A
:100E000000BF1021064800F0EAFE00BFFFF7C4FF54
:100E100000BF2046FFF7B0F900BF00BF10BD0000C3
:100E20004009002010B5FFF7E1FF10BD10B500200C
:100E30000249086000F00AF810BD00009800002088
:100E400001490860704700009800002010B509486B
:100E5000006840F08070074908600020064948603B
:100E60000846006840F00100086004480068FFF789
:100E7000E7FF10BDFCED00E0001000E000000020E6
:100E80000148406870470000001000E010B50022E3
:100E9000026847F6F0739A430C6A8B6823430C6927
:100EA00023434C6923438C692343CC6923434C6A15
:100EB00023438C6A23431A430260CB6843600B6868
:100EC00083604B68C36010BD38B5002000906B464E
:100ED00001227521682004F0FBFF2CA003F066FCC2
:100EE0009DF8000068280ED000BF2D48006800F46F
:100EF000E0602C490843001D29490860BFF34F8F6B
:100F000000BF00BFFEE705F0C9F900283CD17820FA
:100F100005F074FF10B924A003F048FC782005F018
:100F2000ABF810B926A003F041FCC82005F018FF6B
:100F300010B927A003F03AFC04F018F910B92AA060
:100F400003F034FC2F4805F02CF8044604F082FA34
:100F500010B92DA003F02AFC40F2731003F0AEFF8D
:100F600010B931A003F022FCC82004F0A3F910B995
:100F700031A003F01BFC05F0E9FF012005F0ECFDBA
:100F800010B933A003F012FC38BD0000312EC9E8BF
:100F9000B1B8B3F5CABCBBAFB3C9B9A60A0000006B
:100FA0000CED00E00000FA05322E444D50C9E8D6A1
:100FB000C3B4ABB8D0C6F7B3C9B9A60A00000000E5
:100FC000332EC9E8D6C34649464FB3C9B9A60A006D
:100FD000342E444D50C9E8D6C3B2C9D1F9C2CAB300
:100FE000C9B9A60A00000000352E444D50BCD3D428
:100FF000D8D4CBB6AFC7FDB6AFB9CCBCFEB3C9B978
:10100000A60A00003C010020362E444D50CDEAB324
:10101000C9C9E8D6C3B3F5CABCB7BDCFF2C9E8B6F3
:10102000A8C6ABB2EE0A0000372E444D50CAB9C470
:10103000DCB3C9B9A60A0000382E444D50C9E8D621
:10104000C34649464FCBD9C2CAB3C9B9A60A0000A4
:10105000392E446D70C6F4B6AFB3C9B9A60A000004
:101060007047000008B500F0E5FE0848006800F091
:10107000010038B10120054908606A460021044892
:1010800001F0D2FB00F0ECFE08BD000014040140AA
:10109000600200200EB50121192003F059F801204B
:1010A000ADF8080004208DF80B0002A90A4800F0F2
:1010B0007FF80021012000F05BF801200090002063
:1010C0008DF804000C208DF8050001208DF8060035
:1010D000684600F003F80EBD000C014000212349D2
:1010E0008279002A3AD00A46126803689A430B466E
:1010F0001A600A1D126803689A430B1D1A60027970
:1011000011440A6803681A430A60184A08321268D0
:1011100003689A43154B08331A601A1D1268036856
:101120009A43124B0C331A604279102A0ED11A1FBF
:10113000126803681A430D4B08331A601A1D1268AF
:1011400003681A43094B0C331A600DE007494279D2
:1011500011440A6803681A430A6005E002791144E1
:101160000A6803689A430A6070470000000401405F
:1011700030B500228B071C0F0F2303FA04F20B4B30
:101180008C1053F824309343084C8D1044F82530CC
:1011900023468C1053F824308C07240F00FA04F4F3
:1011A0002343024C8D1044F8253030BD0800014027
:1011B0002DE9F041024600250026002000230024EE
:1011C000002791F803C00CF00F0591F803C00CF054
:1011D000100CBCF1000F03D091F802C04CEA0505D9
:1011E00091F800C0BCF1000F31D0146800202BE052
:1011F0004FF0010C0CFA00F3B1F800C00CEA030642
:101200009E4220D183004FF00F0C0CFA03F7BC4331
:1012100005FA03FC4CEA040491F803C0BCF1280F62
:1012200006D14FF0010C0CFA00FCC2F814C00AE021
:1012300091F803C0BCF1480F05D14FF0010C0CFA36
:1012400000FCC2F810C0401C0828D1D31460B1F8CB
:1012500000C0BCF1FF0F34DD546800202EE000F127
:10126000080C4FF0010808FA0CF3B1F800C00CEAC2
:1012700003069E4221D183004FF00F0C0CFA03F7B6
:10128000BC4305FA03FC4CEA040491F803C0BCF12A
:10129000280F05D100F1080C08FA0CF8C2F81480E8
:1012A00091F803C0BCF1480F07D100F1080C4FF0D2
:1012B000010808FA0CF8C2F81080401C0828CED3A8
:1012C0005460BDE8F08100002DE9F04F87B0462161
:1012D000D02000F0B7F880464521D02000F0B2F8C9
:1012E00008EB00273846FFF7F9F904464821D020DB
:1012F00000F0A8F880464721D02000F0A3F808EBC2
:1013000000273846FFF7EAF981463C21D02000F05B
:1013100099F880463B21D02000F094F808EB002794
:101320003846FFF7DBF906904021D02000F08AF81C
:1013300080463F21D02000F085F808EB0027384692
:10134000FFF7CCF906464FF08E412046FFF73AFAF8
:1013500005D24FF08F412046FEF7C2FF04464FF002
:101360008E414846FFF72EFA05D24FF08F4148468E
:10137000FEF7B6FF81464FF08E410698FFF722FA3E
:1013800005D24FF08F410698FEF7AAFF06904FF066
:101390008E413046FFF716FA05D24FF08F413046A6
:1013A000FEF79EFF064684F000401F49C8603046A5
:1013B000FFF7CFF9074688460698FFF7CAF9824635
:1013C0003A46434603F096FC0022184BCDE9000153
:1013D000FFF7A3F8164A174BCDE90201FFF70FF903
:1013E000CDE90401FFF7C8F905462046FFF7B1F93A
:1013F00082464FF06632104BFFF701F90746FFF7C0
:10140000BBF9044684F000473946284600F05CFAF0
:101410000A480068044908600846C0F81090466110
:1014200007B0BDE8F08F00000C0900200080664086
:10143000F1D4C853FB2109406666304050010020BA
:1014400000BFFEE770B505460E46002400F0FCF82C
:10145000284600F0C5F8641C00F052F9304600F050
:10146000BFF8641C00F04CF900F0EEF8691CC8B23B
:1014700000F0B6F8641C00F043F9002000F076F8A4
:10148000044600F017F9204670BD000000B50020AA
:101490000F4908600F48006820F0F0000D4908600F
:1014A000081D006840F03000091D086000200A494E
:1014B000C1F88401012003F0DDFC0120044908602B
:1014C00003F0D8FC00200549C1F8900100BD0000E0
:1014D00090012242000C0140008021420000224283
:1014E00008B50121182002F033FE0220ADF80000FB
:1014F00010208DF8030003208DF80200694605488E
:10150000FFF756FE1020ADF8000069460248FFF7CD
:101510004FFE08BD000C01400010014000B5002046
:101520000E4908600E48006820F0F0000C49086081
:10153000081D006840F03000091D086001200949BD
:10154000C1F8840103F096FC01200449086003F00F
:1015500091FC00200449C1F8900100BD9001224295
:10156000000C0140008021420000224210B50346D9
:1015700000221748006820F0F00015490860081D97
:10158000006840F08000091D0860002415E000207C
:1015900010490860022003F06DFC01200E49C1F8DB
:1015A00090015006020E0D48006808B1501CC2B2EE
:1015B000022003F05FFC601CC4B2082CE7DB13B10F
:1015C000FFF764FF01E0FFF7A9FF104610BD000020
:1015D000000C01409001224200002242048121427D
:1015E00000B502461448006820F0F0001249086077
:1015F000081D006840F03000091D086000200F49F8
:101600000860002315E0D0090D4908605006020E5D
:10161000012003F02FFC01200A49C1F8900103F0DA
:1016200029FC002005490860012003F023FC581C18
:10163000C3B2082BE7DB00BD000C01409001224241
:10164000848121420000224200B51648006820F043
:10165000F00014490860081D006840F03000091DC2
:1016600008600120104908601048D0F8040108B94A
:10167000002000BD01200E49086003F0FBFB0020A4
:101680000A49C1F8840108488038006808B1002080
:10169000EFE7012003F0EEFB002005490860012080
:1016A000E7E70000000C01408481214200802142D4
:1016B0009001224200B50F48006820F0F0000D496B
:1016C0000860081D006840F03000091D0860002017
:1016D000094908600949C1F88401012003F0CAFBE7
:1016E0000120054908600549C1F8840103F0C2FBE7
:1016F00000BD0000000C0140900122420080214208
:1017000000B500221548006820F0F0001349086079
:10171000081D006840F08000091D08600120104984
:10172000086003F0A7FB01200E49C1F8900103F007
:10173000A1FB0AE0501CC2B2322A03DDFFF7BAFF58
:10174000002000BD012003F095FB054880380068AB
:101750000028EFD1044908600120F2E7000C0140A5
:1017600084812142000022429001224270B5054648
:101770000E46144631462846FFF764FE20700120CD
:1017800070BDF8B506460F4614461D466A463946F2
:101790003046FFF7EBFF2DB10120A0409DF800106F
:1017A000084305E00120A0409DF8001021EA000058
:1017B000C0B200909DF800203946304600F036F85F
:1017C000F8BD2DE9F8430746884614461D46089E95
:1017D0006A4641463846FFF7C9FF28B3601CFF211F
:1017E00001FA00F0C4F108012944491EFF220A4110
:1017F000104300F0FF09C5F1080006FA00F0C6B278
:10180000C4F1070006419DF8000000EA09000090BD
:101810009DF80000304300909DF800204146384676
:1018200000F004F8BDE8F8830020FBE737B5044674
:101830000D4602AB01222946204600F001F83EBDCC
:101840002DE9F04180460D4616461F460024FFF75D
:10185000FBFE4046FFF7C4FEFFF752FF2846FFF7A6
:10186000BFFEFFF74DFF00BF06E0385DFFF7B8FE93
:10187000FFF746FF601CC4B2B442F6DBFFF71AFF65
:101880000120BDE8F081000008B50121142002F01C
:101890005FFC4FF48070ADF8000003208DF802006B
:1018A00010208DF8030069460548FFF781FC4EF2D1
:1018B0000810ADF8000069460248FFF779FC08BD42
:1018C00000080140001001402DE9F04105460C469A
:1018D000894801682046FEF703FD074687480168EE
:1018E0003846FEF703FD0646854801683046FEF798
:1018F000A5FC834908608348416883480068FEF777
:10190000EFFC06467F4881683046FEF7E9FC7F49D8
:1019100008607C48C06880F0004048607948C06832
:1019200080F0004088607A480068C86008687349A1
:101930000968FEF7DBFC0646724801683046FEF790
:101940007DFC70490860714948686C490968FEF778
:10195000CDFC06466B4841683046FEF76FFC69498E
:1019600048606A49886865490968FEF7BFFC064611
:10197000644881683046FEF761FC624988606349CB
:10198000C8685E490968FEF7B1FC06465D48C16853
:101990003046FEF753FC5B49C86059480168284649
:1019A000FEF79EFC5B4908605B480078FEF79FFEEF
:1019B0000646544801683046FEF798FC57490860CF
:1019C00055480078FEF793FE06464E48816830463B
:1019D000FEF78CFC524908604F480078FEF787FEFE
:1019E00007464E4801683846FEF780FC06464D48DB
:1019F00001683046FEF722FC4B4908600846016842
:101A000046480068FEF7A4FC48490860464801685B
:101A100043480068FEF79CFC454908603F48006861
:101A2000444908603C480078FEF761FE06463548A8
:101A300041683046FEF75AFC3F4908603D4801685E
:101A40003A480068FEF752FC06462E4801683046C8
:101A5000FEF749FC2B4908603748016833480068A5
:101A6000FEF744FC0646274841683046FEF73BFC3B
:101A7000244948602F4801682D480068FEF736FC6D
:101A80000646204881683046FEF72DFC1D498860D7
:101A90002948016826480068FEF728FC06461948D0
:101AA000C1683046FEF71FFC1649C8601948016836
:101AB0001E480068FEF71AFC0646114801683046C9
:101AC000FEF7BCFB0E490860124801681848006820
:101AD000FEF70CFC0646084801683046FEF7AEFBF0
:101AE00005490860084601682046FEF7F9FB1349DE
:101AF0000860BDE8F08100006C0100206401002056
:101B0000500100209001002058010020681D002095
:101B10005C01002070010020680100207401002099
:101B200078010020600100207C010020800100205D
:101B300084010020880100208C0100205401002035
:101B400010B5022000F010F8032000F021F800206A
:101B500000F014F8002000F037F8002000F02BF817
:101B6000002000F01FF810BD38B504460323022200
:101B70006B21D0200094FFF724FE38BD38B5044611
:101B8000022304221C21D0200094FFF71AFE38BD46
:101B900038B50446022304221B21D0200094FFF70D
:101BA00010FE38BD10B50446234601223721D0204F
:101BB000FFF7E7FD10BD10B50446234605226A2154
:101BC000D020FFF7DEFD10BD10B5044623460622E7
:101BD0006B21D020FFF7D5FD10BD00BFFEE730B56B
:101BE00005460C4622460021284600F001F830BD8B
:101BF0002DE9F04103460C4617460FB9BDE8F081C8
:101C000003B9FBE70025002202E02D022543521C08
:101C1000042AFAD3384603F0030C1946BCF1000F2E
:101C200008D0624603E001F8014B401E521C08B187
:101C3000042AF8D30E4601E020C6001F0428FBD278
:101C4000314602E001F8014B401E0028FAD100BFE6
:101C5000D4E7704708B54FF4A06000F057F80620AD
:101C60008DF8000001208DF8010000208DF80200A1
:101C700001208DF80300684600F010F826208DF84A
:101C8000000001208DF803008DF8010000208DF880
:101C90000200684600F002F808BD000070B500219F
:101CA00000230F22C47804B3154C246804F4E064C4
:101CB000C4F5E064210AC1F10403CA40447804FA7F
:101CC00003F184781440214309010E4C0678A15594
:101CD000047804F01F050124AC4005786D11AD00B7
:101CE00005F1E025C5F8004109E0047804F01F057E
:101CF0000124AC40044D0678761145F8264070BDAD
:101D00000CED00E000E400E080E100E00249014366
:101D1000024A1160704700000000FA050CED00E077
:101D20007047704770B5044600F068F800202849F5
:101D3000087028490870284908702849086028490F
:101D40000860284908702849087028490870284800
:101D5000006858B12748056845B12548066803E082
:101D6000761E002028602D1D002EF9D1002022496A
:101D7000087001F05BFA01F089FA204600F0CAFF12
:101D8000208800B170BD204601F014FB208800B10E
:101D9000F8E7204601F06AFD208800B1F2E720460E
:101DA00000F080FF208800B1ECE7204602F054F9F3
:101DB000208800B1E6E7204601F09CFC208800B1B5
:101DC000E0E700F0A3FEFFF7ABFF00BFDAE700009B
:101DD000C0000020C8000020CC000020040100202A
:101DE00008010020C9000020CA000020CB0000200C
:101DF000C8700008C4700008FA0000200A4A116880
:101E0000002002E0002204C1401C084A12689042EF
:101E1000F8D3054A1268054B1B6802EB8302121FB8
:101E2000034B1A6070470000C4700008C8700008B7
:101E30000C01002008480078012800D070470748AE
:101E40000078FA2800DBF9E704480078401C0349D1
:101E5000087000BFF2E70000C8000020C0000020AA
:101E600010B500242E480078012800D010BD00BF16
:101E7000FEF77EF9044600BF2A48007828B900BF63
:101E80002046FEF779F900BFF0E726480078401EAB
:101E90002449087008460078002805DD00BF204668
:101EA000FEF76AF900BFE1E71F480078002805DD6A
:101EB00000BF2046FEF760F900BFD7E701F0A2F9A6
:101EC0001A4908700846007800EB4000184951F89C
:101ED00020001849086008460068174909688842C8
:101EE00005D100BF2046FEF747F900BFBEE7114805
:101EF0000068D0F88800401C0E490968C1F88800C5
:101F00000E480068401C0D4908604FF080500C4995
:101F1000086000BF2046FEF72FF900BF00BFA5E70D
:101F2000C8000020C0000020CC000020CA00002013
:101F3000E01800200801002004010020F00000202B
:101F400004ED00E010B5002420480078002800DDF2
:101F500010BD1F480078002800DDF9E700BFFEF73C
:101F600007F9044600BF01F04DF91A490870084608
:101F7000007800EB4000184951F82000174908602C
:101F80000846006816490968884205D100BF204606
:101F9000FEF7F2F800BFDBE710480068D0F88800D1
:101FA000401C0E490968C1F888000E480068401CB2
:101FB0000C4908604FF080500B49086000BF204674
:101FC000FEF7DAF800BF00BFC2E70000C000002043
:101FD000CC000020CA000020E018002008010020EA
:101FE00004010020F000002004ED00E010B50446DC
:101FF00012480078E8B901F005F91149087008465F
:102000000078104908700E48007800EB40000E4937
:1020100051F820000D490860084600680C49086026
:10202000012006490870FEF739FD43F6992020800B
:1020300002E045F68A60208010BD0000C800002044
:10204000CA000020C9000020E0180020080100207C
:10205000040100202DE9F0410546002700BF00BF24
:10206000FEF786F8074600BFFEF77CFE00BF0020A3
:102070002A4908802A4908602A4908602A490860D4
:102080002A49088100BFFEF787FE00BF3846FEF7E9
:1020900073F800BF00BF00BF00BFFEF769F8074636
:1020A00000BFFEF75FFE00BF2148046800BFFEF7D7
:1020B00073FE00BF3846FEF75FF800BF00BF25E0A3
:1020C00000BF00BFFEF754F8074600BFFEF74AFE08
:1020D00000BF0020783460632060A06220616081CE
:1020E000A081E0612062FEF7CBFEA061783C04F1A4
:1020F00064060020B081D4F8B44000BFFEF74CFE67
:1021000000BF3846FEF738F800BF00BF002CD7D11B
:1021100001F0B2FE00202880BDE8F081DA00002046
:10212000EC00002000010020C4000020D418002092
:10213000F4000020F8B5044600266A46002102207B
:1021400000F078FCBDF8000018B1BDF80000208058
:10215000F8BD00BF00BFFEF70BF8064600BFFEF754
:1021600001FE00BF00202149086000BFFEF714FEF9
:1021700000BF3046FEF700F800BF00BF00251C4836
:1021800000681C490968884205D91948006819493E
:102190000968B0FBF1F525B9154800680A21B0FBC4
:1021A000F1F56A460021284600F044FC00BF00BF5C
:1021B000FDF7DEFF064600BFFEF7D4FD00BF00209E
:1021C0000D490860094800680C49086001200C4965
:1021D000087000BFFEF7E0FD00BF3046FDF7CCFF02
:1021E00000BF00BF0020208000BFB1E7DC0000205E
:1021F000F8700008E0700008EC000020E00000200B
:10220000E8000020704700002DE9FF4F85B004462C
:1022100091469A46DDF854B0199E139D0020029015
:1022200012983F2809D14648844206D046F27321CD
:102230001A98018009B0BDE8F08F204601F026FB16
:1022400000211A98018006F0010088B106F0020012
:1022500070B1A8460020049007E00020C8F80000F4
:1022600008F104080498401C049004985845F4D3DD
:10227000149805EB80000390CDE900B62A4651463C
:102280004846039B00F040FB8046C4F82890C4F801
:102290002CA006982062129884F83700C4F80080B9
:1022A0000398A06017986065189860606562C4F82C
:1022B00038B0A687002706E0002104F17C0040F832
:1022C0002710781CC7B2002FF6D004F164001699CD
:1022D00000F0A4FD204600F039F800BF00BFFDF774
:1022E00047FF029000BFFEF73DFD00BF94F83700A6
:1022F00000F0A8FF204601F011F8204601F07CFA1A
:1023000010480088401C0F4908800F4800780128B9
:1023100009D000BFFEF740FD00BF0298FDF72CFF7B
:1023200000BF00BF86E700BFFEF736FD00BF029882
:10233000FDF722FF00BF00BFFFF704FE00BF79E7F3
:1023400018180020F8000020C80000207047000086
:1023500070B504460D4600264448844203D147F236
:102360004C10288070BD9CB900BF00BFFDF700FF76
:10237000064600BFFEF7F6FC00BF3D48046800BFFC
:10238000FEF70AFD00BF3046FDF7F6FE00BF00BFB6
:1023900000BF00BFFDF7ECFE064600BFFEF7E2FC03
:1023A00000BF94F8360008282DD2DFE800F00409B9
:1023B0000E10080A0F11204600F0CEFF30E02FE08B
:1023C00000BF204601F03CFD2AE000BF00BF00BF77
:1023D000204601F035FD94F83400082810D2DFE8DB
:1023E00000F004070508090A0B0600BF00BF08E05B
:1023F00000BF00BF00BF00BF204600F054FE00E059
:1024000000BF00BF0CE000BFFEF7C6FC00BF3046B7
:10241000FDF7B2FE00BF00BF46F62D602880A1E7A1
:1024200000BF04F1640000F0A3FC204600F024F893
:10243000204601F0F9F90F480088401E0D49088038
:10244000204601F023FAFF2084F8360000BFFEF793
:10245000A3FC00BF3046FDF78FFE00BF00BF002089
:102460002880FFF76FFD00BF7CE7000018180020F0
:1024700004010020F8000020704700002DE9F05F03
:102480000746884616461C460A9D4FF0000B0CB1C5
:102490000020206000BF00BFFDF76AFE834600BF3A
:1024A000FEF760FC00BF6148006800F164092B463C
:1024B00022463146484600F07DFC8246288808BB0B
:1024C000A4B1FEF7DDFC2168401A58490968486745
:1024D00056480068806F55490968496F884205D29F
:1024E00052480068406F51490968886700BFFEF78D
:1024F00053FC00BF5846FDF73FFE00BF00BF5046EB
:10250000BDE8F09F08F4004068B146F2B0102880A2
:1025100000BFFEF741FC00BF5846FDF72DFE00BF8F
:1025200000BF0020ECE74248007800280DDD00BF26
:10253000FEF732FC00BF5846FDF71EFE00BF00BF8D
:1025400046F6635028800020DAE73B46022200214D
:10255000084600F0EDFC00BFFEF71EFC00BF584629
:10256000FDF70AFE00BF00BFFFF7ECFC00BF00BF95
:10257000FDF7FEFD834600BFFEF7F4FB00BF2B48CE
:10258000006890F8350020B101282AD0032832D104
:1025900032E026480068D0F85CA024480068B0F813
:1025A00060003080D4B121480068006C2060FEF7E4
:1025B00067FC1E490968096C401A1C49096848678C
:1025C0001A480068806F19490968496F884205D226
:1025D00016480068406F1549096888670020288000
:1025E00017E04FF0000A0020308004B1206046F26E
:1025F000A91028800DE000BF4FF0000A00203080B5
:102600001CB10A480068006C206047F2D92028807D
:1026100000BF00BF00BFFEF7BFFB00BF5846FDF77D
:10262000ABFD00BF00BF50466AE700000401002078
:10263000CC0000202DE9FC4704460D4616461F46F7
:10264000DDF82880FEF71CFC81463B4632462946D1
:102650002046CDE9009801F075F9BDE8FC87704788
:102660002DE9F0470746884614461D464FF00009FD
:102670000CB10020206000BF00BFFDF779FD81464E
:1026800000BFFEF76FFB00BF65480068406CC0B339
:1026900063480068406C401E6149096848646048AE
:1026A0000068466C1CB15E480068006C2060FEF754
:1026B000E7FB5B490968096C401A59490968C1F888
:1026C0009C0057480068D0F8A00055490968D1F827
:1026D0009C10884207D252480068D0F89C005049AC
:1026E0000968C1F8A00000BFFEF756FB00BF4846CE
:1026F000FDF742FD00BF00BF002028803046BDE846
:10270000F087FFE708F4004068B100BFFEF744FB24
:1027100000BF4846FDF730FD00BF00BF46F2B010D5
:1027200028800020EBE73F48007800280DDD00BF3F
:10273000FEF732FB00BF4846FDF71EFD00BF00BF9D
:1027400046F6635028800020D9E73B460722002147
:10275000084600F0EDFB00BFFEF71EFB00BF484639
:10276000FDF70AFD00BF00BFFFF7ECFB00BF00BF95
:10277000FDF7FEFC814600BFFEF7F4FA00BF2848D3
:10278000006890F8350020B1012826D0032834D104
:102790002CE0FCB122480068006C2060FEF770FB62
:1027A0001F490968096C401A1D490968C1F89C0055
:1027B0001B480068D0F8A00019490968D1F89C109E
:1027C000884207D216480068D0F89C00144909686E
:1027D000C1F8A0000020288013E01CB11048006858
:1027E000006C206046F2A91028800AE00CB100209D
:1027F000206047F2D920288003E046F62E6028802A
:1028000000BF00BF06480068466C00BFFEF7C4FA70
:1028100000BF4846FDF7B0FC00BF00BF30466EE782
:1028200004010020CC0000202DE9F04105460E46B1
:102830001446FEF725FB804623464246314628468D
:1028400001F014F907463846BDE8F0812DE9F0475C
:1028500004460D4616461F464FF0000A00BF00BF53
:10286000FDF786FC824600BFFEF77CFA00BF0CB97C
:1028700024480468206880B900BFFEF78DFA00BFC5
:102880005046FDF779FC00BF00BF00202860306093
:1028900047F252103880BDE8F08794F83C0000F011
:1028A000010078B900BFFEF777FA00BF5046FDF788
:1028B00063FC00BF00BF00202860306047F2541066
:1028C0003880E8E700BFFEF767FA00BF5046FDF723
:1028D00053FC00BF00BF4FF00008D4F8249003E081
:1028E00009F1040908F10108D9F800000028F7D01F
:1028F000C5F80080A06BA0EB080030600020388095
:1029000000BFC8E704010020F0B50446DDE9055624
:1029100002EB85004FF0807C071F3846C7F800C0E7
:10292000071F38463C60DFF89CC0071F3846C7F8D1
:1029300000C04FF0123C071F3846C7F800C04FF0E8
:10294000033C071F3846C7F800C04FF0023C071F82
:102950003846C7F800C0071F38463B60071F384697
:1029600039604FF0113C071F3846C7F800C04FF0E0
:10297000103C071F3846C7F800C04FF0093C071F3E
:102980003846C7F800C04FF0083C071F3846C7F864
:1029900000C04FF0073C071F3846C7F800C04FF093
:1029A000063C071F3846C7F800C04FF0053C071F1C
:1029B0003846C7F800C04FF0043C071F3846C7F838
:1029C00000C0F0BD553A000870B5FEF759FA05464B
:1029D0001648006816490968884215D013480068EF
:1029E000D0F89000281A11490968C1F88C000F48E6
:1029F0000068D0F894000D490968D1F88C1008449B
:102A00000A490968C1F8940009480068C0F8905064
:102A1000FEF77CF9044605480068D0F8AC00A042F7
:102A200003D202480068C0F8AC4070BD0401002029
:102A3000080100202DE9F04105460E461446002706
:102A400029480078002804DD46F663502080BDE860
:102A5000F08136B1022E05D0042E0AD0082E09D1FD
:102A600001E000BF00BF1DB947F27E202080EEE7E5
:102A700004E003E045F625602080E8E700BF00BFE2
:102A800000BFFDF775FB074600BFFEF76BF900BFFF
:102A900001201649096881F8360023463246294646
:102AA0001248006801F0EEF8208848B100BFFEF738
:102AB00073F900BF3846FDF75FFB00BF00BFC6E7F4
:102AC0000A48006800F048FC00BFFEF765F900BF47
:102AD0003846FDF751FB00BF00BFFFF733FA002077
:102AE000208000BFB3E70000CC00002004010020DC
:102AF00008B500F009F86A4600210248FFF794FE85
:102B000008BD00009C1C0020704700001C4A1D49A5
:102B10001D4A1E4A1E491F4A1F48204A204A214872
:102B2000214A224A2248234823482448244A254A45
:102B3000254A26482648274827482848284829481B
:102B4000294A2A482A482B4A2B4A2C4A2C482D48E5
:102B50002D482E492E482F4A2F4A304A304A314AB2
:102B6000314A324A3248334A334A34483448354A83
:102B7000354A3648364A374800BF00BF00BF704765
:102B80003C710008A47200083D7100083E71000805
:102B90004071000844710008487100084571000840
:102BA0007A7100087C7100089C710008A07100080F
:102BB000A2710008A4710008A6710008A87100089D
:102BC000D4710008DA710008DB710008DC710008BC
:102BD000DE710008E0710008E2710008E47100088D
:102BE000E6710008E8710008187200081E720008FB
:102BF0002072000848720008497200084A720008F2
:102C00004B7200084C7200084E72000850720008A7
:102C10005472000855720008567200085772000876
:102C200058720008597200085A7200085B72000856
:102C30005C7200085E7200085F7200086072000833
:102C40006272000864720008657200086872000809
:102C50009C720008A2720008002400BF1DE000BFA3
:102C600000BFFDF785FA044600BFFEF77BF800BF02
:102C70000A480068401C0949086009480068401C6F
:102C80000749086000BFFEF787F800BF2046FDF740
:102C900073FA00BF00BFFFF744F8E0E7BC00002074
:102CA000DC00002010B58AB0044600200E49086000
:102CB0000B2000210591CDE90704069108460B4938
:102CC00009680B4A12680B4B1B68CDE90132CDE94C
:102CD00003103F200023084A08A100900C48FFF78A
:102CE00093FA0AB010BD0000BC000020A0700008DC
:102CF0009C70000898700008592C000875432F4FED
:102D0000532D4949492049646C65205461736B0017
:102D10001818002070B50246124D28682968103135
:102D2000114D2D886D1EACB2002308E00160002516
:102D300045600581C560103010315D1CABB2A34207
:102D4000F4DB0025056045600581C560054D2D68F3
:102D5000064E3560044D2D88B5800025F5803581FF
:102D6000158070BDD8700008D0700008D4180020FD
:102D700010B5014648894B89002B17DD0A680C4BBA
:102D80001B6813600A4C4B6823602346DB884C8920
:102D90001B1B074CE38023469B884C892344044C2F
:102DA000A38000234B818B810B604B6010BD000022
:102DB000D4180020F0B504460D46608940B90020C3
:102DC000288002B1106046F2925018800020F0BDB9
:102DD00061684E68088928800AB1C8681060086870
:102DE0006060606818B900202060608102E060893E
:102DF000401E6081084800680860074801608088BC
:102E0000401C054FB8803846C088401EF88000201E
:102E100018803046DBE70000D41800200181002232
:102E20004281828102604260704700002DE9F041DA
:102E30000D46DDE90674B0F80AC0B0F80880C44554
:102E400005DB46F2935CA4F800C0BDE8F081DFF832
:102E5000DCC0BCF804C0BCF1000F04D145F21D7CFD
:102E6000A4F800C0F1E7DFF8C4C0DCF80010DFF818
:102E7000BC80D1F800C0C8F800C0C446BCF804C08B
:102E8000ACF1010CA8F804C0C446BCF806C00CF1B3
:102E9000010CA8F806C0C446BCF808C0B8F8068003
:102EA000C44507DADFF884C0BCF806C0DFF87C80D0
:102EB000A8F808C0B0F80AC0BCF1000F0AD1016040
:102EC00041604FF0010CA0F80AC04FF0000CC1F8AF
:102ED00000C017E003F0100CBCF1000F07D106682A
:102EE000316001604FF0000CC1F800C004E0D0F880
:102EF00004C0C1F800C04160B0F80AC00CF1010C78
:102F0000A0F80AC0B0F80CC0B0F80A80C44503DAD3
:102F1000B0F80AC0A0F80CC04D600A81CF604FF035
:102F2000000CA4F800C000BF8FE70000D4180020F8
:102F30002DE9F04105460C4616461F461548006827
:102F400080F8346000201349096881F8350039465B
:102F50001048006800F034FC6CB104F10808EC6023
:102F6000012229460B48006800F016F82946404621
:102F700000F066F806E0002006490968C8870549A0
:102F80000968086303480168204600F019F8BDE8A5
:102F9000F08100000401002010B5C2870163002306
:102FA0000AE000244C600C600C614C610C83CC6125
:102FB000886020315C1CA3B29342F2DB10BD00009C
:102FC00030B548B14568C1F8B85000F1080422682E
:102FD00093681D6AC56113E091F83450022D02D048
:102FE000072D08D103E007A5C1F8B85007E007A5F1
:102FF000C1F8B85003E008A5C1F8B85000BF00BF41
:1030000030BD00005461736B205100005461736B3C
:103010002053656D000000002000000030B507A5BA
:10302000C1F8B85000F1080422681AB193681D6A0B
:10303000C56101E001A5C56130BD000020000000B0
:10304000F0B58E6896F8375007893FB90127078198
:1030500000274F600F600160416023E007897F1CFB
:103060000781026806E0946894F83770AF4200DD8B
:1030700002E05268002AF6D100BF32B900274F6043
:1030800043680B60596041600CE017682FB911600C
:1030900000270F604A60016004E013680B604A601B
:1030A00059601160F0BD2DE9F0410446256BE68FB3
:1030B0000AE0D5F80C8008F108072946384600F0E8
:1030C0000AF82035701E86B2002EF2DC0020E08760
:1030D0002063BDE8F08110B50489012C03D10024E0
:1030E0000460446011E00C6824B94A68002414604C
:1030F00002600AE04C6824B90B6800245C604360FD
:1031000003E00B684A685A6013600489641E0481F6
:1031100000244C600C6010BD2DE9F84306460C46B7
:1031200017469846089D94F83600082850D2DFE8E4
:1031300000F00405080906072B2C00BF00BF00BFE4
:1031400047E000BF94F83400032807D143463A46CD
:1031500021463046009500F03FF803E0E765A4F80B
:103160006080256436B12046FFF79DFF214630463A
:10317000FFF754FF204600F05FFC00203434A070BD
:10318000607004F8340924E000BF94F83400032888
:1031900007D143463A4621463046009500F01CF8D8
:1031A00003E0E765A4F860802564204600F048FE4F
:1031B00036B12046FFF777FF21463046FFF72EFF56
:1031C00004203434A0700020607004F8340900E05A
:1031D00000BF00BFBDE8F883F0B50446059E086B4C
:1031E000CD8F0AE0C768A74204D10461426103831E
:1031F000C66104E020306F1EBDB2002DF2DC00BFBE
:10320000F0BD000070B50025074C03E005F120007B
:10321000C5B2241D20680028F8D02068FCF7B3FF51
:103220002844C5B2284670BDB4000020002004E048
:103230000021034A42F82010401C0228F8D37047AE
:10324000B400002030B5420900F01F030121C3F192
:103250001F04A140034C54F822400C43014D45F893
:10326000224030BDB400002030B5420900F01F03F9
:103270000121C3F11F04A140034C54F822408C43A8
:10328000014D45F8224030BDB400002000210AE085
:1032900001EB4102054B03EB820000220281026038
:1032A00042604A1CD1B24029F2D37047E018002096
:1032B00010B5044694F83700FFF7C4FF94F83700C0
:1032C00005490978884203D1204600F027F802E03A
:1032D000204600F003F810BDC900002010B590F89A
:1032E000373003EB43030C4C04EB83010B893BB9F0
:1032F00001230B810023C36003610860486009E07B
:103300000B895B1C0B810B68C360002303610A6897
:103310001061086010BD0000E018002010B590F8A2
:10332000373003EB43030B4C04EB83010B893BB9B0
:1033300001230B810023C36003610860486008E03B
:103340000B895B1C0B810023C3604A680261D0605B
:10335000486010BDE01800202DE9F041054695F8C1
:10336000370000EB4000124901EB80042F69EE6842
:1033700087B946B9002020812060606095F8370049
:10338000FFF772FF0EE02089401E2081002030618F
:10339000266007E02089401E2081FE600EB967602C
:1033A00000E0376100202861E860BDE8F08100009E
:1033B000E01800200021034A1160034A11800180B7
:1033C00070470000D0000020D400002086B000200C
:1033D000009000BF06E0B7490968480001AA002133
:1033E000FFF728FBB44800780128F4D101A8FEF7C4
:1033F00031FE0027B1480068AE490968884205D906
:10340000AE480068AB490968B0FBF1F727B9AB4893
:1034100000680A21B0FBF1F74AE1FDF731FD824671
:10342000FDF78AFCA649086000BF00BFFCF7A0FEBC
:10343000009000BFFDF796FC00BFA2480068A249BB
:10344000086000209F49086000BFFDF7A5FC00BF91
:103450000098FCF791FE00BF00BF9C4800689A49A5
:103460000968884248D9994800689949884205D234
:1034700042F2107003900120029023E0934800680C
:103480009449884205D24FF47A7003900A20029042
:1034900018E08E4800689049884203D26420039067
:1034A00002900FE0894800688C49884205D20A20C2
:1034B00003904FF47A70029004E00120039042F2EE
:1034C00010700290814801680298B1FBF0F97E49C2
:1034D000039809684843B0FBF9F042F21071081AEA
:1034E0007F4908807F4800880988884208DA7C483C
:1034F00000887C49088003E042F210707849088017
:10350000FEF780FE002500BF00BFFCF731FE0090F3
:1035100000BFFDF727FC00BF7348046800BFFDF73C
:103520003BFC00BF0098FCF727FE00BF00BF2EE069
:1035300000BF00BFFCF71CFE009000BFFDF712FCAF
:1035400000BF54F8940F6060002044F8940900BF55
:10355000FDF722FC00BF0098FCF70EFE00BF00BF85
:10356000D4F89800054400BF00BFFCF701FE0090AE
:1035700000BFFDF7F7FB00BFD4F8B44000BFFDF774
:103580000BFC00BF0098FCF7F7FD00BF00BF002C4C
:10359000CED145B34E48854205D242F21070059017
:1035A0004FF0010B1BE04B48854205D24FF47A7077
:1035B00005904FF00A0B12E04748854203D2642081
:1035C000059083460BE04548854204D20A200590C9
:1035D0004FF47A7B03E00120059042F2107BB5FBAB
:1035E000FBF0049003E0002005900120049000BF50
:1035F00000BFFCF7BDFD009000BFFDF7B3FB00BFAF
:103600003948046800BFFDF7C7FB00BF0098FCF70E
:10361000B3FD00BF00BF2FE0D4F8980005994843E0
:103620000499B0FBF1F086B242F21070864200D9E4
:103630000646A4F88260B4F88400B04201DAA4F827
:10364000846001AB04F1A402111D2046FFF7FEF8CF
:1036500000BF00BFFCF78CFD009000BFFDF782FBB0
:1036600000BFD4F8B44000BFFDF796FB00BF009840
:10367000FCF782FD00BF00BF002CCDD11B480078B5
:10368000012805D100201949087001A8FEF7E2FCC5
:10369000FDF7F6FBA0EB0A0815480068404502D28A
:1036A0001348C0F8008001AA00213846FFF7C2F98C
:1036B000B3E60000E0700008E8000020F8700008A1
:1036C000C4000020DC000020E4000020E000002016
:1036D000801A060000093D00005A62020084D717D4
:1036E000D8000020DA000020F4000020D6000020DE
:1036F000EC00002010B58AB0044600201F49086085
:103700001F4908601F4908601F4908701F49087059
:103710001F48006820B946F62B6020800AB010BD13
:103720001C4800681C490968884203D246F62C6090
:103730002080F3E7194800783F2803D346F62A6033
:103740002080EBE7032000210591CDE907040691D5
:10375000084610490968124A12680D4B1B68CDE9EA
:103760000132CDE903100D48007800230D4A0EA167
:1037700000901248FEF748FD00BFCFE7DC000020B4
:10378000E4000020E0000020E8000020D600002037
:10379000E4700008EC700008F4700008DC700008A9
:1037A000E8700008CD33000875432F4F532D494969
:1037B000492053746174205461736B00E01B002036
:1037C00038B504460D4685B16B460222294620468F
:1037D00000F058FABDF8000018B9032084F836004C
:1037E00006E0022084F8360002E0022084F8360069
:1037F0002046FFF7B1FD38BD0021C0F8B0100949DF
:10380000096819B90021C0F8B41007E00549096832
:10381000C0F8B41003490968C1F8B0000149086054
:1038200070470000F4000020D0F8B020D0F8B410A9
:103830004AB90D4B196011B10023C1F8B030002313
:10384000C0F8B4300FE029B90023C2F8B430C0F892
:10385000B03008E0C2F8B410C1F8B0200023C0F8BE
:10386000B430C0F8B0307047F40000200021044AA2
:103870001160044A1180044A116001807047000001
:10388000F4000020F8000020F000002070B504468D
:1038900000202060A0606060E06020616061A06145
:1038A000E06125A0206200206062A062E0622064E6
:1038B000E065A4F86000002104F16400FFF7AEFAAF
:1038C00000206067A067002506E0002104F17C006D
:1038D00040F82510681CC5B2002DF6D00020343405
:1038E0002061A066E066606084F84C006067206735
:1038F00020814FF0004060610020A061E061206203
:103900006062A4F84E00A4F850006065A065FDF761
:10391000B7FA0646E66500202066A0672070607052
:10392000A0704020E0700020E067C4F8800004A090
:10393000C4F88400343C70BD3F5461736B000000D8
:10394000200000002DE9FC4704460F4690469946AA
:10395000DDE90A654FF0000A00BF00BFFCF708FC74
:10396000824600BFFDF7FEF900BF0CB9314804687C
:103970000020288094F8360008284BD2DFE800F0B9
:1039800004051A1B06071C1D00BF00BF00BF4B46E5
:103990004246394604F16400CDE90065FFF746FA76
:1039A00000BFFDF7F9F900BF5046FCF7E5FB00BF8B
:1039B00000BF3CE000BF00BF00BF94F83400022805
:1039C00015D143463A46214600200096FFF7A4FB56
:1039D00000BFFDF7E1F900BF5046FCF7CDFB00BF8B
:1039E00000BF09F40040A0B9FEF7ACFA11E04B4665
:1039F0004246394604F16400CDE90065FFF716FA46
:103A000000BFFDF7C9F900BF5046FCF7B5FB00BF8A
:103A100000BF0CE000BFFDF7BFF900BF5046FCF748
:103A2000ABFB00BF00BF46F62D60288000BF00BF83
:103A3000BDE8FC870401002010B50446204600F0D4
:103A4000FFF994F8360000F0040010B92046FFF7A3
:103A50002FFC10BD08B504480068FEF700FE69465B
:103A60000020FEF775FC08BD040100202DE9F84395
:103A70000446884617461D464FF0000900BF00BFA8
:103A8000FCF776FB814600BFFDF76CF900BF0CB96F
:103A90007148046827640020288094F836000828BC
:103AA00078D2DFE800F00405585906075A5B00BFDA
:103AB00000BF00BF0420012804D0022815D004282C
:103AC00039D126E0606CFF280ED100BFFDF764F904
:103AD00000BF4846FCF750FB00BF00BF46F6C5508C
:103AE00028800020BDE8F88326E04FF6FF71606C67
:103AF00088420DD100BFFDF74FF900BF4846FCF7E3
:103B00003BFB00BF00BF46F6C55028800020E9E718
:103B100012E0606C401C68B900BFFDF73DF900BFC2
:103B20004846FCF729FB00BF00BF46F6C550288079
:103B30000020D7E700E000BF00BF606C401C60645D
:103B4000666C00BFFDF728F900BF4846FCF714FB80
:103B500000BF00BF7DE000BF00BF00BF94F834008D
:103B6000072818D100231A46214618460097FFF768
:103B7000D3FA666C00BFFDF70FF900BF4846FCF7AB
:103B8000FBFA00BF00BF08F40040002852D1FEF746
:103B9000D9F94FE04FE00420012804D0022814D0C6
:103BA000042838D125E0606CFF280DD100BFFDF757
:103BB000F3F800BF4846FCF7DFFA00BF00BF46F647
:103BC000C550288000208DE726E04FF6FF71606C1D
:103BD00088420DD100BFFDF7DFF800BF4846FCF773
:103BE000CBFA00BF00BF46F6C5502880002079E719
:103BF00012E0606C401C68B900BFFDF7CDF800BF53
:103C00004846FCF7B9FA00BF00BF46F6C550288009
:103C1000002067E700E000BF00BF606C401C6064EC
:103C2000666C00BFFDF7B8F800BF4846FCF7A4FA81
:103C300000BF00BF0DE000BFFDF7AEF800BF484673
:103C4000FCF79AFA00BF00BF46F62D6028800026D8
:103C500000BF00BF304645E704010020002108E016
:103C6000064A02EBC100002202608280C2804A1C28
:103C700091B2034A12889142F2DB704790170020FC
:103C8000107100082DE9F04F0C4616461D46042E13
:103C90001ED1DFF8A091D9F80090A4EB0909A9F191
:103CA000010313F5803F0DD94FF00009C0F84C9087
:103CB000C0F85090C0F81C9047F27E29A5F80090FB
:103CC000BDE8F08FC46403F10109C0F850903FE0F3
:103CD00084B3082E25D1D0F8489009EB0407DFF80B
:103CE0005491D9F80090A7EB0909A9F10103A34267
:103CF00001D2C76406E0DFF83C91D9F80090A144F6
:103D0000C0F84C90DFF82CA1D0F84C90DAF800A065
:103D1000A9EB0A09C0F85090D0F84C90C0F8489030
:103D200016E0DFF81091D9F80090A144C0F84C904B
:103D300004650DE0FFE74FF00009C0F84C90C0F8B3
:103D40005090C0F81C9047F27E29A5F80090B7E784
:103D5000DFF8E4A0BAF800A0D0F84C90B9FBFAFB69
:103D60000AFB1B991FFA89F8DFF8D09009EBC8020B
:103D7000B2F80490B9F1000F0BD14FF00009C0F870
:103D80001490C0F8189010604FF00109A2F8049048
:103D90003EE0116834E0DFF89CA0D1F84C90DAF8EE
:103DA00000A0A9EB0A09C1F85090D0F85090D1F8C2
:103DB00050A0D1450ED9D1F81490B9F1000F01D01F
:103DC00049691DE04FF00009C0F814908161486115
:103DD000002115E0D1F81890B9F1000F07D14FF08C
:103DE0000009C0F8189041618861106007E0D1F8BF
:103DF00018C0C0F818C04161CCF8140088610021D7
:103E00000029C8D1B2F8049009F10109A2F8049080
:103E1000B2F80690B2F804A0D14503DAB2F80490E3
:103E2000A2F80690C2614FF00009A5F8009000BF0B
:103E300046E70000FC0000201071000890170020E9
:103E400010B5C269BAB1002404651468844205D172
:103E50004169116039B100248C6104E081694369D2
:103E60004B6103B19961002444618461C461C464FD
:103E70009488641E948010BD002006E0054A02EB81
:103E8000C0010022CA80421C90B2034A12889042AC
:103E9000F4DB704790170020107100082DE9F05FE7
:103EA0004FF0000B00BF00BFFCF762F9834600BF74
:103EB000FCF758FF00BFFCF7E3FF054657480068D2
:103EC000401C564908600846006855490988B0FBFF
:103ED000F1F201FB12001FFA80FA524800EBCA0807
:103EE000D8F80040002782E0002C7FD0D4F814904E
:103EF00094F83600082875D2DFE800F00408051BA6
:103F0000063D075000BF00BF00BF6CE04349E06CB6
:103F10000968401A20654149E06C0968884206D169
:103F2000002084F836002046FFF786FD00E00127D8
:103F300059E03A49E06C0968401A20653749E06C5D
:103F40000968884215D10020E065A4F86000FCF7FC
:103F500097FF20642046FFF7A6F82046FFF76CFD88
:103F600000203434A07003206070002004F834096D
:103F700000E0012737E02949E06C0968401A206514
:103F80002649E06C0968884206D1042084F836008E
:103F90002046FFF755FF00E0012724E01F49E06CB1
:103FA0000968401A20651D49E06C0968884217D1EC
:103FB0000020E065A4F86000FCF762FF2064204662
:103FC000FFF771F82046FFF73BFF04203434A07060
:103FD00003206070002004F8340902E006E001E0EC
:103FE000012700E000BF00BF4C4600E00127002F82
:103FF0003FF47AAFFCF744FF461B0B480068B04221
:1040000001D20948066000BFFCF7C6FE00BF584653
:10401000FCF7B2F800BF00BFBDE8F09FFC00002035
:104020001071000890170020000100201CB500BF8F
:104030000EE001AB6A4600210846FEF711FBBDF811
:10404000040028B903480078012801D1FFF726FFB2
:10405000EFE70000C800002010B58AB00446002039
:104060001D4908601D490860FFF7F8FD1C480068FD
:1040700020B947F2122020800AB010BD194800680C
:1040800019490968884203D247F213202080F3E7D8
:10409000164800783F2803D347F211202080EBE731
:1040A0000B20002105910A46CDE9070406910D4831
:1040B00000680F4909680A4B1B68CDE90131CDE959
:1040C00003020A48007800230A4A0BA100900F4817
:1040D000FEF79AF800BFCFE7FC00002000010020A7
:1040E0000071000808710008F4700008FC700008F6
:1040F000047100082D40000875432F4F532D494986
:1041000049205469636B205461736B009C1C002030
:1041100029B1064A52690243044B5A6104E0034A3A
:1041200052698243014B5A617047000000100240FF
:1041300029B1064AD2690243044BDA6104E0034A1A
:10414000D2698243014BDA617047000000100240DF
:1041500029B1064A92690243044B9A6104E0034A7A
:1041600092698243014B9A6170470000001002403F
:1041700030B500210022002400232D4D6D6805F08C
:104180000C0121B1042905D0082923D105E0294DCE
:10419000056022E0284D05601FE0254D6D6805F49F
:1041A0007012234D6D6805F48034022505EB9242B0
:1041B0001CB9224D554305600BE01D4D6D6805F49B
:1041C00000351DB11B4D5543056002E01A4D5543A6
:1041D000056002E0174D056000BF00BF144D6D681B
:1041E00005F0F0010909164D6B5C0568DD4045607E
:1041F0000F4D6D6805F4E061090A114D6B5C45686F
:10420000DD4085600A4D6D6805F46051C90A0C4DAA
:104210006B5C4568DD40C560054D6D6805F4404147
:10422000890B084D6B5CC568B5FBF3F5056130BDC6
:104230000010024000127A000024F40000093D0042
:104240001400002024000020704710B500F002F890
:1042500010BD00000CB500200190009033480068AC
:1042600040F480303149086000BF3048006800F4F5
:10427000003000900198401C0190009818B90198F6
:10428000B0F5A06FF1D12948006800F4003010B1FA
:104290000120009001E0002000900098012843D107
:1042A0002348006840F01000214908600846006873
:1042B00020F0030008600846006840F00200086033
:1042C0001A484068194948600846406848600846EE
:1042D000406840F4806048600846406820F47C10E4
:1042E00048600846406840F4F81048600846006896
:1042F00040F08070086000BF0C48006800F000705B
:104300000028F9D00948406820F0030007494860B8
:104310000846406840F00200486000BF034840681B
:1043200000F00C000828F9D10CBD0000001002407C
:10433000002002401CB5FDF77DFDFEF7D9FB1B48B0
:1043400090F86A0001282DD1184890F869000128DA
:1043500004D10020154981F8690023E0134890F842
:104360006900022810D10020104981F8690081F805
:104370006A0001A80090084690F868200023011DFB
:104380000B48FEF757F90DE00020084981F86A0054
:1043900001A80090084690F868200023011D0448F9
:1043A000FEF748F9FDF75CFD1CBD00002C00002065
:1043B0001C03002010B51348006840F001001149AB
:1043C000086008464068104908400E4948600846A1
:1043D00000680E4908400B4908600846006820F450
:1043E000802008600846406820F4FE0048604FF4D2
:1043F0001F008860FFF729FF4FF000600449086044
:1044000010BD0000001002400000FFF8FFFFF6FEA4
:1044100008ED00E004480549086005484860054883
:1044200088600548C86070470000164324090020D2
:104430003333B33E0000C8419A99993E30B51848CD
:1044400000684FF47A72B0FBF2F1B1F1807F00D3D3
:104450001DE021F07F40401E4FF0E02250615017D8
:104460000F22002807DA13071D0E0E4B00F00F0471
:10447000241F1D5503E013071C0E0B4B1C5400BFDB
:1044800000204FF0E02290610720106100BF4FF044
:10449000E020006940F001004FF0E021086130BDEC
:1044A0000000002018ED00E000E400E0194800885A
:1044B00000F0200020282BD14FF0E020806944F646
:1044C0002061884204D30220134981F8690003E087
:1044D0000120114981F869000F4890F86A0040B93D
:1044E00001200D4981F86A00002081F8680081F8F8
:1044F0006B000848001D0088C1B2074890F868208A
:1045000090F86800401C044B83F86800181D815423
:1045100070470000004400402C00002000200A49A1
:1045200081F8680081F86B000849088005E00748B9
:1045300000880A2801DD00207047034890F86B00CE
:104540000128F4D100BFF7E72C000020280000204C
:10455000094A126822F00102074B803BC3F8802011
:104560001A46C2F88C00C2F88410D2F8802042F0BB
:104570000102C3F8802070478000024021B1828987
:1045800042F40052828104E082894DF6FF731A40A2
:104590008281704700B591B001210846FFF7B8FD50
:1045A00001214804FFF7C4FD01210420FFF7D0FDDD
:1045B0000420ADF8140018208DF8170003208DF8A2
:1045C000160005A92448FCF7F3FD0820ADF81400F7
:1045D00004208DF8170005A91F48FCF7E9FD4FF4EA
:1045E000E13001900020ADF80800ADF80A00ADF808
:1045F0000C00ADF810000C20ADF80E0001A9174812
:1046000000F062F8012240F22551144800F037F81A
:1046100001211248FFF7B2FF1048001D069000204C
:10462000079010200890002009900A9080200B909D
:1046300000200C900D900E904FF440500F900020F1
:10464000109006A90648FCF721FC8020034914318C
:10465000088011B000BD0000000801400044004087
:104660008000024002460020B1F5007F00D100BF6B
:1046700013880B400BB1012000E000207047F0B51B
:104680000346002400260025002040F66A17B942A0
:1046900000D100BF1846C1F3421401F01F060127E4
:1046A00007FA06F5012C01D10C3004E0022C01D1EF
:1046B000103000E014301AB107682F43076002E0A1
:1046C0000768AF430760F0BD2DE9F04786B00546A7
:1046D0000E460024A24600BFA1460027B08900B1C3
:1046E00000BF2F462C8A4CF6FF700440F08804432C
:1046F0002C82AC894EF6F3100440B088318908430F
:10470000718908430443AC81AC8A4FF6FF400440F2
:10471000B0890443AC8201A8FFF72AFD1F488742F5
:1047200002D1DDF810A001E0DDF80CA0A88900F4AA
:10473000004040B10AEBCA0000EB0A1031684900A2
:10474000B0FBF1F807E00AEBCA0000EB0A10316891
:104750008900B0FBF1F86420B8FBF0F004012009F7
:10476000642101FB1089A88900F4004040B1322087
:1047700000EBC900B0FBF1F000F00700044308E0D3
:10478000322000EB09106421B0FBF1F000F00F00C3
:1047900004432C8106B0BDE8F087000000380140DA
:1047A000C1F308028280704700BFFEE70FB4054BDB
:1047B00010B503A9044A029800F08EF810BC5DF809
:1047C00014FB000069580008A0010020490050EACD
:1047D000C12018BF04204A0D18BF40F0010040F26C
:1047E000FF72B2EB515F08BF40F00200012808BF22
:1047F000052070472DE9F0414F1E00EBC70104462C
:10480000D1E9000115461E4637F006020DD02A46B2
:104810003346FBF782FE7F1E04EBC703D3E9002378
:10482000FBF7D4FD37F00602F1D1022F25D0042F7B
:1048300013D0062F18BFBDE8F0812A463346FBF798
:104840006CFED4E90A23FBF7C1FD2A463346FBF789
:1048500064FED4E90823FBF7B9FD2A463346FBF78B
:104860005CFED4E90623FBF7B1FD2A463346FBF78D
:1048700054FED4E90423FBF7A9FD2A463346FBF78F
:104880004CFED4E90223FBF7A1FD2A463346FBF791
:1048900044FED4E90023BDE8F041FBF797BD0122B7
:1048A000FCF796B8FBF792BD024A00201107FCF70F
:1048B0008FB8000001FDFFFF02E008C8121F08C109
:1048C000002AFAD170477047002001E001C1121F91
:1048D000002AFBD1704700002DE9FF4F89B09B46AD
:1048E0000446002506E025280BD05A460B99904730
:1048F000641C6D1C20780028F5D10DB02846BDE859
:10490000F08F0027B8460122474900E0074314F81A
:10491000013F203B02FA03F00842F7D120782E280D
:1049200019D114F8010F47F004072A280ED06FF0B0
:104930002F022078A0F1300109290CD808EB88015A
:1049400002EB410100EB0108641CF2E70A98641CC9
:1049500050F8048B0A9020780028CED0642808D024
:10496000692806D075281ED05A460B9990476D1CB1
:1049700058E00A994FF00A0901C90A91002802DAA1
:1049800040422D2102E0390504D52B218DF820105D
:10499000012103E0F90704D02021F7E78A4608AE99
:1049A0000DE00021FAE70A994FF00A0901C90A91BE
:1049B000F7E74946FBF710FF303106F8011D0028E4
:1049C000F7D1ADEB060000F12009780701D44FF0D4
:1049D0000108C84502DDA8EB090000E00020804680
:1049E000002706E008A85A46C05D0B9990476D1C49
:1049F0007F1C5745F6DB04E030205A460B99904760
:104A00006D1CB8F10001A8F10108F5DC05E016F80D
:104A1000010B5A460B9990476D1CB9F10001A9F1A1
:104A20000109F4DC641C65E7092801002DE9FE4F4B
:104A300006460F460025684600F028FF002442E0A5
:104A400056F8240057F82410A0EB010ABAF1000F21
:104A500001DB514601E0CAF100010846FBF73EFECA
:104A600083464FF08F41FBF773FC80465DF82400CE
:104A70000021FBF79DFE16D05DF824104046FBF7A1
:104A800067FC82464FF07E51FBF72AFC814629F0F5
:104A9000004A0F48416A5046FBF794FE12D20120AB
:104AA000A04005430EE00A48C1694046FBF780FE7E
:104AB00005D30748016A4046FBF784FE02D2012075
:104AC000A0400543641C032CBADB2846BDE8FE8FDA
:104AD000D07200082DE9F84F04460D4621F0004041
:104AE00000917349814211DC7249884201DC06D190
:104AF0002CB120462946BDE8F84FFFF7D0BE6E48DE
:104B0000002DCCBF6D496E49BDE8F88F6D498142DB
:104B100011DD6D498142D8BF4FF0FF366DDD204673
:104B20002946FFF753FE042808BFFFF7BDFE2046C5
:104B30002946BDE8F88F6549654F25F0004581425B
:104B400033DD6449814219DD002632464FF080434F
:104B500020462946FBF73AFC80468A460122204639
:104B60002946FBF735FF00223B46FBF7D0FC4246C7
:104B70005346FBF744FD04460D463EE00126002265
:104B8000BA463B4620462946FBF720FC80460F46A6
:104B90000022534620462946FBF7B9FC42463B46D5
:104BA000FBF72DFD04460D4627E04B4981421BDDF6
:104BB000DFF828A102260022534620462946FBF7AB
:104BC000ACFC00223B46FBF701FC80460F4600226E
:104BD000534620462946FBF79AFC42463B46FBF7E4
:104BE0000EFD04460D4608E0032622462B46002013
:104BF0003B49FBF704FD04460D4622462B46104672
:104C00001946FBF78AFC8B46824602460B46FBF7A9
:104C100084FC07460246334888460B460621784402
:104C2000FFF7E8FD52465B46FBF777FC82462E48CD
:104C30008B463A46434605217844FFF7DBFD3A466A
:104C40004346FBF76AFC02460B46002E5046594687
:104C50000CDAFBF7BBFB22462B46FBF75EFC01B0F0
:104C600022462B46BDE8F04FFBF754BCFBF7AEFBEA
:104C700022462B46FBF751FC1C4A7A4402EBC60342
:104C8000D3E90023FBF743FC22462B46FBF73FFC0E
:104C9000174A7A4402EBC603D3E90023FBF73AFC38
:104CA000009A002AB8BF81F00041BDE8F88F0000EB
:104CB000000010440000F07F182D4454FB21F93F00
:104CC000FB21F9BF0000DC3F0000203E0000F33F65
:104CD0000000F03F0000E63F008003400000F83F86
:104CE0000000F0BF36330000F432000092320000C2
:104CF0005A3200002DE9F04D9446CCF1000423F027
:104D000000464CEA0404524F46EAD4749A46884658
:104D100021F00042BC4206D8454240EA050442EA7E
:104D2000D474BC4204D9BDE8F04D6246FFF7BABD69
:104D3000AAF14055A5F17F6555EA0C040BD0022479
:104D400004EAAA74434DDFF810E144EAD87452EA49
:104D5000000B04D00CE0BDE8F04DFFF7BBBE002C0B
:104D600014BF012CBDE8F08D022C30D0032C32D0C2
:104D700056EA0C0B0AD0BE4220D1BA4209D126F025
:104D8000804622F080423346114617E000291ADBA4
:104D900025E0DFF8C8B0FB44002C04BFDBE90001CC
:104DA000BDE8F08D012C02BFDBE9000181F000417C
:104DB000BDE8F08D022C0AD0032C0CD0BA4212D1DF
:104DC000B8F1000F0BDA23482549BDE8F08D2846DD
:104DD0002449BDE8F08D28467146BDE8F08D1D4898
:104DE0002149BDE8F08D921B12153C2AC4BF194819
:104DF0001D490EDCBAF1000FBEBF12F13C0F0020BE
:104E0000014606DB6246FBF7FAFB21F00041FFF7A3
:104E100061FE002C08BFBDE8F08D012C04BF81F0BD
:104E20000041BDE8F08D114A114B022C07D0FBF771
:104E30006EFB2A46BDE8F04D0A4BFBF768BBFBF75B
:104E400066FB2A46BDE8F04D064BFBF763BB00004E
:104E50000000F07F182D4454FB2109C0EE31000002
:104E6000FB21F9BFFB210940FB21F93F075C14330B
:104E700026A6A13C00BF411E081EFCD1704738B5D4
:104E8000044664B120208DF8000028208DF8010030
:104E900030208DF8020038208DF8030004E0A322B2
:104EA00004216846FBF7ABF96A46042140F69E20D0
:104EB00002F00CF801F0F8FB38BD00003EB50446E6
:104EC00002208DF80000CA208DF80100E3208DF843
:104ED000020009208DF803006A460421682001F0D1
:104EE000F5FFA3208DF8000004F0400048B1C02079
:104EF0008DF80100C8208DF80200C2208DF8030053
:104F000006E0A3208DF801008DF802008DF8030063
:104F100004F4C07048B1C4208DF80400CC208DF892
:104F20000500C6208DF8060006E0A3208DF80400D9
:104F30008DF805008DF80600A3208DF807008DF888
:104F400008008DF809006A460A2140F6A72001F002
:104F5000BDFF04F0030018B120208DF8000002E02E
:104F6000D8208DF800006A46012140F6B62001F0F5
:104F7000ADFF04F0200018B1012000F0ADF802E010
:104F8000002000F0A9F804F4C07008B304F48070A5
:104F900060B1B2208DF800008B208DF80100B620A2
:104FA0008DF802009B208DF803000BE0B0208DF8F7
:104FB000000080208DF80100B4208DF802009020C0
:104FC0008DF803006A46042140F6A22001F07EFF1E
:104FD00004F0010020B3F8208DF800006A4601219A
:104FE0004FF40B6001F072FFFA21072000F046FB3E
:104FF000072000F00DFB012000F02DFB642000F0E5
:105000000DFC4FF4FA7000F01CFCC821304800F091
:10501000BDFA282000F0D6FA0A2000F0E6FA08E0EF
:10502000D8208DF800006A4601214FF40B6001F092
:105030004DFF04F0020018B1D9208DF8000002E005
:10504000D8208DF800006A46012140F23D7001F041
:105050003DFF04F0040018B1012000F069F802E0FF
:10506000002000F065F804F0100018B10120FFF7EF
:1050700006FF02E00020FFF702FF44F00800154998
:10508000488101F011FB00201249887304F04000B0
:1050900018B10846807B801D887304F4C07020B16D
:1050A0000C48807B801D0B49887304F0140020B1EC
:1050B0000848807B10300749887304F0030020B152
:1050C0000448807B001D0349887300203EBD00001A
:1050D00009E3CA02581D00203EB504466CB10EA17A
:1050E000D1E900208968CDE9002002916A460921B2
:1050F0004FF4976001F0EAFE3EBD0AA2D2E900102B
:105100009268CDE9010200916A4609214FF4976047
:1051100001F0DCFEF0E70000B8AAB38DB4980D35BD
:105120005D000000B8AAAAAAB088C3C5C7000000E5
:1051300038B5044664B1C0208DF80000C2208DF857
:105140000100C4208DF80200C6208DF8030004E0A1
:105150008B2204216846FBF752F86A46042140F688
:10516000982001F0B3FE01F09FFA38BD10B5C823B6
:105170004FF48062024940F6F63001F089F910BD23
:10518000F872000870B588B0064601A800F0D2FF9A
:10519000BDF804000021C90341EA5045C403444856
:1051A000007A00F0030056F8200005904048007A8D
:1051B00000F0040010B10598404205903C48007A88
:1051C000C0F3C10056F8200006903948007A00F07C
:1051D000200010B10698404206903548007AC0F38E
:1051E000811056F8200007903148008900F4807043
:1051F00010B10798404207900598C117A0FB0423FF
:1052000001FB043100FB0510810041EA927005901A
:105210000698C117A0FB042301FB043100FB051015
:10522000810041EA927006900798C117A0FB042301
:1052300001FB043100FB0510810041EA92700790E8
:105240000598000E8DF808000598000C8DF80900EF
:105250000598000A8DF80A000598C0B28DF80B0079
:105260000698000E8DF80C000698000C8DF80D00C5
:105270000698000A8DF80E000698C0B28DF80F004F
:105280000798000E8DF810000798000C8DF811009B
:105290000798000A8DF812000798C0B28DF8130025
:1052A00002AA0C214FF4257001F010FE08B070BD69
:1052B000581D002030B585B0044616A207CA02ABBF
:1052C00007C3C82C03DD4FF0FF3005B030BDC82048
:1052D00090FBF4F0401E85B2280A8DF80000E8B279
:1052E0008DF801006A46022140F2162001F0EEFD21
:1052F00010B14FF0FF30E8E702AA0C2140F6C120C0
:1053000001F0E4FD10B14FF0FF30DEE70448848186
:105310000020DAE7FEF2ABC4AAF1DFDFBBAFDFDFCC
:10532000581D00201FB504464848007A00F00300CD
:1053300054F8200001904548007A00F0040010B1B4
:105340000198404201904148007AC0F3C10054F8EE
:10535000200002903D48007A00F0200010B1029831
:10536000404202903948007AC0F3811054F820007E
:1053700003903648008900F4807010B103984042D1
:1053800003903349019880FB0101800F40EA8100BE
:1053900001902F49029880FB0110820042EA91702F
:1053A00002902B49039880FB0110820042EA917021
:1053B00003900198000E8DF800000198000C8DF804
:1053C00001000198000A8DF802000198C0B28DF822
:1053D00003006A4604214FF4747001F077FD18B1A0
:1053E0004FF0FF3004B010BD0298000E8DF80000A1
:1053F0000298000C8DF801000298000A8DF8020056
:105400000298C0B28DF803006A4604214FF475700B
:1054100001F05CFD10B14FF0FF30E3E70398000EA0
:105420008DF800000398000C8DF801000398000A25
:105430008DF802000398C0B28DF803006A4604217B
:105440004FF4767001F042FDCCE70000581D0020BB
:1054500009E3CA0210B586B0044647A0006803906D
:1054600046A00068029046A00068019045A0006830
:10547000009004F0030003A9085C8DF8140003A851
:10548000C4F3C101405C8DF8150003A8C4F3811179
:10549000405C8DF8160004F0030002A9085C8DF84A
:1054A000100002A8C4F3C101405C8DF8110002A8ED
:1054B000C4F38111405C8DF8120005AA032140F26B
:1054C000264001F003FD18B14FF0FF3006B010BDCB
:1054D00004AA032140F22A4001F0F8FC10B14FF079
:1054E000FF30F3E7019805900098049004F0040061
:1054F00058B19DF8140040F001008DF814009DF89B
:10550000100040F001008DF8100004F0200058B1A8
:105510009DF8150040F001008DF815009DF8110070
:1055200040F001008DF8110004F4807058B19DF82E
:10553000160040F001008DF816009DF8120040F0B2
:1055400001008DF8120005AA03214FF4886001F0D4
:10555000BDFC10B14FF0FF30B8E704AA032140F2C0
:10556000314001F0B3FC10B14FF0FF30AEE7064818
:1055700004810020AAE700004CCD6C000CC92C006F
:105580003656760026466600581D0020F8B50546BA
:105590000E464FF47A7095FBF0F000FB06F4200EF7
:1055A0008DF80000200C8DF80100200A8DF8020013
:1055B000E0B28DF803006A4604214FF4AE7001F0AA
:1055C00085FCF8BD38B50446052094FBF0F084B2A4
:1055D00020128DF80000E0B28DF801006A46022129
:1055E0004FF4AD7001F072FC38BD38B504460520AB
:1055F00094FBF0F084B220128DF80000E0B28DF838
:1056000001006A4602214FF4AC7001F05FFC38BD26
:1056100038B504460020009004F0010020B19DF848
:10562000000040F03000009004F0020020B19DF82E
:10563000000040F00C00009004F0040020B19DF840
:10564000000040F0030000906A4601214FF4A4706E
:1056500001F03CFC38BD38B50446012C01DA0124C8
:1056600002E0042C00DD0424601EC0B200906A46F3
:10567000012140F24F1001F029FC38BD2DE9FC4713
:1056800006460F4606F0070010B1B7F5C86F03DDF8
:105690004FF0FF30BDE8FC873846FBF728F881461D
:1056A0005949FAF755FE8046684600F01DFD9DF801
:1056B0000000022806D0042816D0082826D010287A
:1056C00048D135E04FF08D414046FAF70FFE814654
:1056D000FBF72BF884B24D494046FAF707FE8146A6
:1056E000FBF723F885B238E04FF08C414046FAF7DB
:1056F000FDFD8146FBF719F884B245494046FAF7AB
:10570000F5FD8146FBF711F885B226E04FF08B419D
:105710004046FAF7EBFD8146FBF707F884B23D49B6
:105720004046FAF7E3FD8146FAF7FFFF85B214E041
:105730004FF08A414046FAF7D9FD8146FAF7F5FF66
:1057400084B235494046FAF7D1FD8146FAF7EDFFBC
:1057500085B202E04FF0FF309CE700BF20128DF8C9
:105760000400E0B28DF8050028128DF80600E8B2BA
:105770008DF8070006F00100A0B101AA02214FF444
:10578000EA7001F0A3FB10B14FF0FF3082E70DF19A
:10579000060202214FF4927001F098FB10B14FF015
:1057A000FF3077E706F00200A0B101AA02214FF412
:1057B000EC7001F08BFB10B14FF0FF306AE70DF198
:1057C000060202214FF4947001F080FB10B14FF0FB
:1057D000FF305FE706F00400A0B101AA02214FF4F8
:1057E000EE7001F073FB10B14FF0FF3052E70DF196
:1057F000060202214FF4967001F068FB10B14FF0E1
:10580000FF3047E7002045E70000484300004046DE
:105810000000C045000040450000C04438B50446C3
:10582000052094FBF0F085B228128DF80000E8B254
:105830008DF801006A4602214FF4EF7001F046FB3B
:1058400038BD38B50446052094FBF0F085B2281227
:105850008DF80000E8B28DF801006A4602214FF48D
:10586000ED7001F033FB38BD70B504460D46E1B272
:105870000548FEF795FF00BF80210348FEF7F2FEC2
:105880000028F9D0204670BD004400407CB5054694
:1058900028494968087801AB04220D2100F018FB63
:1058A00008B107207CBD9DF80700C0F301109DF8EA
:1058B000041001F0E00140EAE1008DF800009DF8DD
:1058C0000700C0F381009DF8051001F0E00140EAF7
:1058D000E1008DF801009DF8070000F003009DF83D
:1058E000061001F0E00140EAE1008DF8020000241A
:1058F0001CE01DF8040018B9002045F8240013E04E
:105900000D4845F8240006E055F824000B49FAF745
:10591000EDFC45F824001DF80400401EC0B20DF84F
:1059200004000028F0D100BF601CC4B2032CE0DBEF
:105930000020B7E7100100207B14AE3E1D5A843FC3
:105940002DE9F04F89B005460C46914601208DF8AF
:10595000140000208DF81500FE4A1268917CFD4A63
:105960005268107805AB022200F0EBFA20B14FF03C
:10597000FF3009B0BDE8F08F08AA0021C820FDF76C
:1059800059F800208DF81400F24A1268D17BF14AD0
:105990005268107805AB012200F0D3FA10B14FF035
:1059A000FF30E6E7EB4A12685179EA4A526810780C
:1059B00005AB012200F0C5FA10B14FF0FF30D8E777
:1059C000E44A1268917CE34A5268107805AB0122E0
:1059D00000F0B7FA10B14FF0FF30CAE7DD4A1268A5
:1059E000D17DDC4A5268107805AB012200F0A9FA9B
:1059F00010B14FF0FF30BCE7D64A12681179D54A92
:105A00005268107805AB012200F09BFA10B14FF0FC
:105A1000FF30AEE70C208DF81400CE4A12681179E1
:105A2000CC4A5268107805AB012200F08AFA10B116
:105A30004FF0FF309DE708AA00210F20FCF7FAFF86
:105A4000C448806A407A8DF81400C24A126891787E
:105A5000C04A5268107805AB012200F072FA10B10A
:105A60004FF0FF3085E7BB48806A007A8DF814005C
:105A7000B84A12685178B74A5268107805AB0122CB
:105A800000F05FFA10B14FF0FF3072E7B9F1000F8C
:105A900007D0B048806A807A40F0E0008DF81400AA
:105AA00004E0AC48806A807A8DF81400A94A126834
:105AB0009179A84A5268107805AB012200F041FAAA
:105AC00010B14FF0FF3054E7B9F1000F07D0A148F3
:105AD000806AC07A40F0E0008DF8140003E09E4830
